{
  "contractName": "BodhiToken",
  "abi": [
    {
      "constant": true,
      "inputs": [],
      "name": "name",
      "outputs": [
        {
          "name": "",
          "type": "string"
        }
      ],
      "payable": false,
      "stateMutability": "view",
      "type": "function"
    },
    {
      "constant": false,
      "inputs": [
        {
          "name": "_spender",
          "type": "address"
        },
        {
          "name": "_value",
          "type": "uint256"
        }
      ],
      "name": "approve",
      "outputs": [
        {
          "name": "",
          "type": "bool"
        }
      ],
      "payable": false,
      "stateMutability": "nonpayable",
      "type": "function"
    },
    {
      "constant": true,
      "inputs": [],
      "name": "totalSupply",
      "outputs": [
        {
          "name": "",
          "type": "uint256"
        }
      ],
      "payable": false,
      "stateMutability": "view",
      "type": "function"
    },
    {
      "constant": false,
      "inputs": [
        {
          "name": "_from",
          "type": "address"
        },
        {
          "name": "_to",
          "type": "address"
        },
        {
          "name": "_value",
          "type": "uint256"
        }
      ],
      "name": "transferFrom",
      "outputs": [
        {
          "name": "",
          "type": "bool"
        }
      ],
      "payable": false,
      "stateMutability": "nonpayable",
      "type": "function"
    },
    {
      "constant": true,
      "inputs": [],
      "name": "decimals",
      "outputs": [
        {
          "name": "",
          "type": "uint256"
        }
      ],
      "payable": false,
      "stateMutability": "view",
      "type": "function"
    },
    {
      "constant": false,
      "inputs": [
        {
          "name": "_to",
          "type": "address"
        },
        {
          "name": "_amount",
          "type": "uint256"
        }
      ],
      "name": "mintByOwner",
      "outputs": [
        {
          "name": "",
          "type": "bool"
        }
      ],
      "payable": false,
      "stateMutability": "nonpayable",
      "type": "function"
    },
    {
      "constant": true,
      "inputs": [
        {
          "name": "_owner",
          "type": "address"
        }
      ],
      "name": "balanceOf",
      "outputs": [
        {
          "name": "balance",
          "type": "uint256"
        }
      ],
      "payable": false,
      "stateMutability": "view",
      "type": "function"
    },
    {
      "constant": true,
      "inputs": [],
      "name": "owner",
      "outputs": [
        {
          "name": "",
          "type": "address"
        }
      ],
      "payable": false,
      "stateMutability": "view",
      "type": "function"
    },
    {
      "constant": true,
      "inputs": [],
      "name": "symbol",
      "outputs": [
        {
          "name": "",
          "type": "string"
        }
      ],
      "payable": false,
      "stateMutability": "view",
      "type": "function"
    },
    {
      "constant": false,
      "inputs": [
        {
          "name": "_to",
          "type": "address"
        },
        {
          "name": "_value",
          "type": "uint256"
        }
      ],
      "name": "transfer",
      "outputs": [
        {
          "name": "",
          "type": "bool"
        }
      ],
      "payable": false,
      "stateMutability": "nonpayable",
      "type": "function"
    },
    {
      "constant": true,
      "inputs": [
        {
          "name": "_owner",
          "type": "address"
        },
        {
          "name": "_spender",
          "type": "address"
        }
      ],
      "name": "allowance",
      "outputs": [
        {
          "name": "remaining",
          "type": "uint256"
        }
      ],
      "payable": false,
      "stateMutability": "view",
      "type": "function"
    },
    {
      "constant": false,
      "inputs": [
        {
          "name": "newOwner",
          "type": "address"
        }
      ],
      "name": "transferOwnership",
      "outputs": [],
      "payable": false,
      "stateMutability": "nonpayable",
      "type": "function"
    },
    {
      "constant": true,
      "inputs": [],
      "name": "tokenTotalSupply",
      "outputs": [
        {
          "name": "",
          "type": "uint256"
        }
      ],
      "payable": false,
      "stateMutability": "view",
      "type": "function"
    },
    {
      "inputs": [],
      "payable": false,
      "stateMutability": "nonpayable",
      "type": "constructor"
    },
    {
      "anonymous": false,
      "inputs": [
        {
          "indexed": false,
          "name": "supply",
          "type": "uint256"
        },
        {
          "indexed": true,
          "name": "to",
          "type": "address"
        },
        {
          "indexed": false,
          "name": "amount",
          "type": "uint256"
        }
      ],
      "name": "Mint",
      "type": "event"
    },
    {
      "anonymous": false,
      "inputs": [
        {
          "indexed": true,
          "name": "_owner",
          "type": "address"
        },
        {
          "indexed": true,
          "name": "_spender",
          "type": "address"
        },
        {
          "indexed": false,
          "name": "_value",
          "type": "uint256"
        }
      ],
      "name": "Approval",
      "type": "event"
    },
    {
      "anonymous": false,
      "inputs": [
        {
          "indexed": true,
          "name": "_from",
          "type": "address"
        },
        {
          "indexed": true,
          "name": "_to",
          "type": "address"
        },
        {
          "indexed": false,
          "name": "_value",
          "type": "uint256"
        }
      ],
      "name": "Transfer",
      "type": "event"
    }
  ],
  "bytecode": "0x6060604052341561000f57600080fd5b60038054600160a060020a03191633600160a060020a03161790556107fd806100396000396000f300606060405236156100c25763ffffffff7c010000000000000000000000000000000000000000000000000000000060003504166306fdde0381146100c7578063095ea7b31461015157806318160ddd1461018757806323b872dd146101ac578063313ce567146101d45780633542aee2146101e757806370a08231146102095780638da5cb5b1461022857806395d89b4114610257578063a9059cbb1461026a578063dd62ed3e1461028c578063f2fde38b146102b1578063f7abab9e146102d2575b600080fd5b34156100d257600080fd5b6100da6102e5565b60405160208082528190810183818151815260200191508051906020019080838360005b838110156101165780820151838201526020016100fe565b50505050905090810190601f1680156101435780820380516001836020036101000a031916815260200191505b509250505060405180910390f35b341561015c57600080fd5b610173600160a060020a036004351660243561031c565b604051901515815260200160405180910390f35b341561019257600080fd5b61019a6103c2565b60405190815260200160405180910390f35b34156101b757600080fd5b610173600160a060020a03600435811690602435166044356103c8565b34156101df57600080fd5b61019a6104f2565b34156101f257600080fd5b610173600160a060020a03600435166024356104f7565b341561021457600080fd5b61019a600160a060020a0360043516610526565b341561023357600080fd5b61023b610541565b604051600160a060020a03909116815260200160405180910390f35b341561026257600080fd5b6100da610550565b341561027557600080fd5b610173600160a060020a0360043516602435610587565b341561029757600080fd5b61019a600160a060020a036004358116906024351661065d565b34156102bc57600080fd5b6102d0600160a060020a0360043516610688565b005b34156102dd57600080fd5b61019a6106e7565b60408051908101604052600b81527f426f64686920546f6b656e000000000000000000000000000000000000000000602082015281565b600081158061034e5750600160a060020a03338116600090815260026020908152604080832093871683529290522054155b151561035957600080fd5b600160a060020a03338116600081815260026020908152604080832094881680845294909152908190208590557f8c5be1e5ebec7d5bd14f71427d1e84f3dd0314c0f7b2291e5b200ac8c7c3b9259085905190815260200160405180910390a350600192915050565b60005481565b600080600160a060020a03841615156103e057600080fd5b50600160a060020a03808516600081815260026020908152604080832033909516835293815283822054928252600190529190912054610426908463ffffffff6106f216565b600160a060020a03808716600090815260016020526040808220939093559086168152205461045b908463ffffffff61070416565b600160a060020a038516600090815260016020526040902055610484818463ffffffff6106f216565b600160a060020a03808716600081815260026020908152604080832033861684529091529081902093909355908616917fddf252ad1be2c89b69c2b068fc378daa952ba7f163c4a11628f55a4df523b3ef9086905190815260200160405180910390a3506001949350505050565b600881565b60035460009033600160a060020a0390811691161461051557600080fd5b61051f8383610713565b9392505050565b600160a060020a031660009081526001602052604090205490565b600354600160a060020a031681565b60408051908101604052600381527f424f540000000000000000000000000000000000000000000000000000000000602082015281565b6000600160a060020a038316151561059e57600080fd5b600160a060020a0333166000908152600160205260409020546105c7908363ffffffff6106f216565b600160a060020a0333811660009081526001602052604080822093909355908516815220546105fc908363ffffffff61070416565b600160a060020a0380851660008181526001602052604090819020939093559133909116907fddf252ad1be2c89b69c2b068fc378daa952ba7f163c4a11628f55a4df523b3ef9085905190815260200160405180910390a350600192915050565b600160a060020a03918216600090815260026020908152604080832093909416825291909152205490565b60035433600160a060020a039081169116146106a357600080fd5b600160a060020a03811615156106b857600080fd5b6003805473ffffffffffffffffffffffffffffffffffffffff1916600160a060020a0392909216919091179055565b662386f26fc1000081565b6000828211156106fe57fe5b50900390565b60008282018381101561051f57fe5b600080548190610729908463ffffffff61070416565b9050662386f26fc1000081111561073f57600080fd5b6000805484018155600160a060020a03851681526001602052604090205461076d908463ffffffff61070416565b600160a060020a038516600081815260016020526040808220939093555490917f4e3883c75cc9c752bb1db2e406a822e4a75067ae77ad9a0a4d179f2709b9e1f6919086905191825260208201526040908101905180910390a250600193925050505600a165627a7a72305820aac0688f883783eb4b84dcd6edb3f193906d702107f62d21da25c5809f01b58a0029",
  "source": "pragma solidity ^0.4.17;\n\nimport './StandardToken.sol';\nimport '../libs/Ownable.sol';\n\ncontract BodhiToken is StandardToken, Ownable {\n    // Token configurations\n    string public constant name = \"Bodhi Token\";\n    string public constant symbol = \"BOT\";\n    uint256 public constant decimals = 8;\n\n    uint256 public constant tokenTotalSupply = 100 * (10**6) * (10**decimals); // 100 million BOT ever created\n\n    // Events\n    event Mint(uint256 supply, address indexed to, uint256 amount);\n\n    /// @notice Creates new BodhiToken contract\n    function BodhiToken() public {\n    }\n\n    /// @notice Allows the owner to mint new tokens\n    /// @param _to Address to mint the tokens to\n    /// @param _amount Amount of tokens that will be minted\n    /// @return Boolean to signify successful minting\n    function mintByOwner(address _to, uint256 _amount) public onlyOwner returns (bool) {\n        return mint(_to, _amount);\n    }\n\n    /// @dev Mint new tokens\n    /// @param _to Address to mint the tokens to\n    /// @param _amount Amount of tokens that will be minted\n    /// @return Boolean to signify successful minting\n    function mint(address _to, uint256 _amount) internal returns (bool) {\n        uint256 checkedSupply = totalSupply.add(_amount);\n        require(checkedSupply <= tokenTotalSupply);\n\n        totalSupply += _amount;\n        balances[_to] = balances[_to].add(_amount);\n\n        Mint(totalSupply, _to, _amount);\n\n        return true;\n    }\n}\n",
  "sourcePath": "/Users/dericw/coding/bodhi/contracts/contracts/tokens/BodhiToken.sol",
  "schemaVersion": "1.0.0",
  "updatedAt": "2017-11-01T15:42:16.914Z"
}