{
  "contractName": "CrowdsaleBodhiToken",
  "abi": [
    {
      "constant": true,
      "inputs": [],
      "name": "name",
      "outputs": [
        {
          "name": "",
          "type": "string"
        }
      ],
      "payable": false,
      "stateMutability": "view",
      "type": "function"
    },
    {
      "constant": false,
      "inputs": [
        {
          "name": "_spender",
          "type": "address"
        },
        {
          "name": "_value",
          "type": "uint256"
        }
      ],
      "name": "approve",
      "outputs": [
        {
          "name": "",
          "type": "bool"
        }
      ],
      "payable": false,
      "stateMutability": "nonpayable",
      "type": "function"
    },
    {
      "constant": true,
      "inputs": [],
      "name": "totalSupply",
      "outputs": [
        {
          "name": "",
          "type": "uint256"
        }
      ],
      "payable": false,
      "stateMutability": "view",
      "type": "function"
    },
    {
      "constant": false,
      "inputs": [
        {
          "name": "_from",
          "type": "address"
        },
        {
          "name": "_to",
          "type": "address"
        },
        {
          "name": "_value",
          "type": "uint256"
        }
      ],
      "name": "transferFrom",
      "outputs": [
        {
          "name": "",
          "type": "bool"
        }
      ],
      "payable": false,
      "stateMutability": "nonpayable",
      "type": "function"
    },
    {
      "constant": true,
      "inputs": [],
      "name": "decimals",
      "outputs": [
        {
          "name": "",
          "type": "uint256"
        }
      ],
      "payable": false,
      "stateMutability": "view",
      "type": "function"
    },
    {
      "constant": false,
      "inputs": [
        {
          "name": "_to",
          "type": "address"
        },
        {
          "name": "_amount",
          "type": "uint256"
        }
      ],
      "name": "mintByOwner",
      "outputs": [
        {
          "name": "",
          "type": "bool"
        }
      ],
      "payable": false,
      "stateMutability": "nonpayable",
      "type": "function"
    },
    {
      "constant": true,
      "inputs": [],
      "name": "initialExchangeRate",
      "outputs": [
        {
          "name": "",
          "type": "uint256"
        }
      ],
      "payable": false,
      "stateMutability": "view",
      "type": "function"
    },
    {
      "constant": true,
      "inputs": [
        {
          "name": "_owner",
          "type": "address"
        }
      ],
      "name": "balanceOf",
      "outputs": [
        {
          "name": "balance",
          "type": "uint256"
        }
      ],
      "payable": false,
      "stateMutability": "view",
      "type": "function"
    },
    {
      "constant": true,
      "inputs": [],
      "name": "nativeDecimals",
      "outputs": [
        {
          "name": "",
          "type": "uint256"
        }
      ],
      "payable": false,
      "stateMutability": "view",
      "type": "function"
    },
    {
      "constant": true,
      "inputs": [],
      "name": "saleAmount",
      "outputs": [
        {
          "name": "",
          "type": "uint256"
        }
      ],
      "payable": false,
      "stateMutability": "view",
      "type": "function"
    },
    {
      "constant": true,
      "inputs": [],
      "name": "owner",
      "outputs": [
        {
          "name": "",
          "type": "address"
        }
      ],
      "payable": false,
      "stateMutability": "view",
      "type": "function"
    },
    {
      "constant": true,
      "inputs": [],
      "name": "fundingEndBlock",
      "outputs": [
        {
          "name": "",
          "type": "uint256"
        }
      ],
      "payable": false,
      "stateMutability": "view",
      "type": "function"
    },
    {
      "constant": true,
      "inputs": [],
      "name": "symbol",
      "outputs": [
        {
          "name": "",
          "type": "string"
        }
      ],
      "payable": false,
      "stateMutability": "view",
      "type": "function"
    },
    {
      "constant": true,
      "inputs": [
        {
          "name": "_weiAmount",
          "type": "uint256"
        },
        {
          "name": "_exchangeRate",
          "type": "uint256"
        },
        {
          "name": "_nativeDecimals",
          "type": "uint256"
        },
        {
          "name": "_decimals",
          "type": "uint256"
        }
      ],
      "name": "getTokenExchangeAmount",
      "outputs": [
        {
          "name": "",
          "type": "uint256"
        }
      ],
      "payable": false,
      "stateMutability": "pure",
      "type": "function"
    },
    {
      "constant": false,
      "inputs": [
        {
          "name": "_to",
          "type": "address"
        },
        {
          "name": "_value",
          "type": "uint256"
        }
      ],
      "name": "transfer",
      "outputs": [
        {
          "name": "",
          "type": "bool"
        }
      ],
      "payable": false,
      "stateMutability": "nonpayable",
      "type": "function"
    },
    {
      "constant": true,
      "inputs": [],
      "name": "fundingStartBlock",
      "outputs": [
        {
          "name": "",
          "type": "uint256"
        }
      ],
      "payable": false,
      "stateMutability": "view",
      "type": "function"
    },
    {
      "constant": true,
      "inputs": [
        {
          "name": "_owner",
          "type": "address"
        },
        {
          "name": "_spender",
          "type": "address"
        }
      ],
      "name": "allowance",
      "outputs": [
        {
          "name": "remaining",
          "type": "uint256"
        }
      ],
      "payable": false,
      "stateMutability": "view",
      "type": "function"
    },
    {
      "constant": false,
      "inputs": [
        {
          "name": "_beneficiary",
          "type": "address"
        }
      ],
      "name": "buyTokens",
      "outputs": [],
      "payable": true,
      "stateMutability": "payable",
      "type": "function"
    },
    {
      "constant": false,
      "inputs": [
        {
          "name": "newOwner",
          "type": "address"
        }
      ],
      "name": "transferOwnership",
      "outputs": [],
      "payable": false,
      "stateMutability": "nonpayable",
      "type": "function"
    },
    {
      "constant": true,
      "inputs": [],
      "name": "tokenTotalSupply",
      "outputs": [
        {
          "name": "",
          "type": "uint256"
        }
      ],
      "payable": false,
      "stateMutability": "view",
      "type": "function"
    },
    {
      "inputs": [
        {
          "name": "_fundingStartBlock",
          "type": "uint256"
        },
        {
          "name": "_fundingEndBlock",
          "type": "uint256"
        },
        {
          "name": "_initialExchangeRate",
          "type": "uint256"
        },
        {
          "name": "_presaleAmount",
          "type": "uint256"
        }
      ],
      "payable": false,
      "stateMutability": "nonpayable",
      "type": "constructor"
    },
    {
      "payable": true,
      "stateMutability": "payable",
      "type": "fallback"
    },
    {
      "anonymous": false,
      "inputs": [
        {
          "indexed": true,
          "name": "purchaser",
          "type": "address"
        },
        {
          "indexed": true,
          "name": "beneficiary",
          "type": "address"
        },
        {
          "indexed": false,
          "name": "value",
          "type": "uint256"
        },
        {
          "indexed": false,
          "name": "amount",
          "type": "uint256"
        }
      ],
      "name": "TokenPurchase",
      "type": "event"
    },
    {
      "anonymous": false,
      "inputs": [
        {
          "indexed": false,
          "name": "supply",
          "type": "uint256"
        },
        {
          "indexed": true,
          "name": "to",
          "type": "address"
        },
        {
          "indexed": false,
          "name": "amount",
          "type": "uint256"
        }
      ],
      "name": "Mint",
      "type": "event"
    },
    {
      "anonymous": false,
      "inputs": [
        {
          "indexed": true,
          "name": "_owner",
          "type": "address"
        },
        {
          "indexed": true,
          "name": "_spender",
          "type": "address"
        },
        {
          "indexed": false,
          "name": "_value",
          "type": "uint256"
        }
      ],
      "name": "Approval",
      "type": "event"
    },
    {
      "anonymous": false,
      "inputs": [
        {
          "indexed": true,
          "name": "_from",
          "type": "address"
        },
        {
          "indexed": true,
          "name": "_to",
          "type": "address"
        },
        {
          "indexed": false,
          "name": "_value",
          "type": "uint256"
        }
      ],
      "name": "Transfer",
      "type": "event"
    }
  ],
  "bytecode": "0x6060604052341561000f57600080fd5b604051608080610ca28339810160405280805191906020018051919060200180519190602001805160038054600160a060020a03191633600160a060020a03161790559150600090504385101561006557600080fd5b8484101561007257600080fd5b6000831161007f57600080fd5b506305f5e1008102661550f7dca7000081111561009b57600080fd5b6004859055600584905560068390556003546100cd90600160a060020a0316826401000000006106e86100d882021704565b5050505050506101ef565b60035460009033600160a060020a039081169116146100f657600080fd5b61010d838364010000000061097f61011482021704565b9392505050565b60008054819061013190846401000000006109526101e082021704565b9050662386f26fc1000081111561014757600080fd5b6000805484018155600160a060020a03851681526001602052604090205461017c90846401000000006109526101e082021704565b600160a060020a038516600081815260016020526040808220939093555490917f4e3883c75cc9c752bb1db2e406a822e4a75067ae77ad9a0a4d179f2709b9e1f6919086905191825260208201526040908101905180910390a25060019392505050565b60008282018381101561010d57fe5b610aa4806101fe6000396000f3006060604052361561010f5763ffffffff7c010000000000000000000000000000000000000000000000000000000060003504166306fdde03811461011a578063095ea7b3146101a457806318160ddd146101da57806323b872dd146101ff578063313ce567146102275780633542aee21461023a5780636d019f351461025c57806370a082311461026f578063768ea56a1461028e5780638aae995a146102a15780638da5cb5b146102b457806391b43d13146102e357806395d89b41146102f65780639b314b8914610309578063a9059cbb14610328578063d648a6471461034a578063dd62ed3e1461035d578063ec8ac4d814610382578063f2fde38b14610396578063f7abab9e146103b5575b610118336103c8565b005b341561012557600080fd5b61012d6104d6565b60405160208082528190810183818151815260200191508051906020019080838360005b83811015610169578082015183820152602001610151565b50505050905090810190601f1680156101965780820380516001836020036101000a031916815260200191505b509250505060405180910390f35b34156101af57600080fd5b6101c6600160a060020a036004351660243561050d565b604051901515815260200160405180910390f35b34156101e557600080fd5b6101ed6105b3565b60405190815260200160405180910390f35b341561020a57600080fd5b6101c6600160a060020a03600435811690602435166044356105b9565b341561023257600080fd5b6101ed6106e3565b341561024557600080fd5b6101c6600160a060020a03600435166024356106e8565b341561026757600080fd5b6101ed610717565b341561027a57600080fd5b6101ed600160a060020a036004351661071d565b341561029957600080fd5b6101ed610738565b34156102ac57600080fd5b6101ed61073d565b34156102bf57600080fd5b6102c7610748565b604051600160a060020a03909116815260200160405180910390f35b34156102ee57600080fd5b6101ed610757565b341561030157600080fd5b61012d61075d565b341561031457600080fd5b6101ed600435602435604435606435610794565b341561033357600080fd5b6101c6600160a060020a03600435166024356107e1565b341561035557600080fd5b6101ed6108b7565b341561036857600080fd5b6101ed600160a060020a03600435811690602435166108bd565b610118600160a060020a03600435166103c8565b34156103a157600080fd5b610118600160a060020a03600435166108e8565b34156103c057600080fd5b6101ed610947565b600080600160a060020a03831615156103e057600080fd5b6004544310156103ef57600080fd5b6005544311156103fe57600080fd5b6000341161040b57600080fd5b61041b3460065460126008610794565b600054909250610431908363ffffffff61095216565b9050661550f7dca7000081111561044457fe5b61044e8383610961565b5082600160a060020a031633600160a060020a03167f623b3804fa71d67900d064613da8f94b9617215ee90799290593e1745087ad18348560405191825260208201526040908101905180910390a3600354600160a060020a03163480156108fc0290604051600060405180830381858888f1935050505015156104d157600080fd5b505050565b60408051908101604052600b81527f426f64686920546f6b656e000000000000000000000000000000000000000000602082015281565b600081158061053f5750600160a060020a03338116600090815260026020908152604080832093871683529290522054155b151561054a57600080fd5b600160a060020a03338116600081815260026020908152604080832094881680845294909152908190208590557f8c5be1e5ebec7d5bd14f71427d1e84f3dd0314c0f7b2291e5b200ac8c7c3b9259085905190815260200160405180910390a350600192915050565b60005481565b600080600160a060020a03841615156105d157600080fd5b50600160a060020a03808516600081815260026020908152604080832033909516835293815283822054928252600190529190912054610617908463ffffffff61096d16565b600160a060020a03808716600090815260016020526040808220939093559086168152205461064c908463ffffffff61095216565b600160a060020a038516600090815260016020526040902055610675818463ffffffff61096d16565b600160a060020a03808716600081815260026020908152604080832033861684529091529081902093909355908616917fddf252ad1be2c89b69c2b068fc378daa952ba7f163c4a11628f55a4df523b3ef9086905190815260200160405180910390a3506001949350505050565b600881565b60035460009033600160a060020a0390811691161461070657600080fd5b610710838361097f565b9392505050565b60065481565b600160a060020a031660009081526001602052604090205490565b601281565b661550f7dca7000081565b600354600160a060020a031681565b60055481565b60408051908101604052600381527f424f540000000000000000000000000000000000000000000000000000000000602082015281565b6000808086116107a357600080fd5b82600a0a84600a0a8115156107b457fe5b0490506107d7816107cb888863ffffffff610a3d16565b9063ffffffff610a6116565b9695505050505050565b6000600160a060020a03831615156107f857600080fd5b600160a060020a033316600090815260016020526040902054610821908363ffffffff61096d16565b600160a060020a033381166000908152600160205260408082209390935590851681522054610856908363ffffffff61095216565b600160a060020a0380851660008181526001602052604090819020939093559133909116907fddf252ad1be2c89b69c2b068fc378daa952ba7f163c4a11628f55a4df523b3ef9085905190815260200160405180910390a350600192915050565b60045481565b600160a060020a03918216600090815260026020908152604080832093909416825291909152205490565b60035433600160a060020a0390811691161461090357600080fd5b600160a060020a038116151561091857600080fd5b6003805473ffffffffffffffffffffffffffffffffffffffff1916600160a060020a0392909216919091179055565b662386f26fc1000081565b60008282018381101561071057fe5b6000610710838361097f565b60008282111561097957fe5b50900390565b600080548190610995908463ffffffff61095216565b9050662386f26fc100008111156109ab57600080fd5b6000805484018155600160a060020a0385168152600160205260409020546109d9908463ffffffff61095216565b600160a060020a038516600081815260016020526040808220939093555490917f4e3883c75cc9c752bb1db2e406a822e4a75067ae77ad9a0a4d179f2709b9e1f6919086905191825260208201526040908101905180910390a25060019392505050565b6000828202831580610a595750828482811515610a5657fe5b04145b151561071057fe5b6000808284811515610a6f57fe5b049493505050505600a165627a7a72305820652fa6d7b30d9bf8a9b0d51080ccbf0b670deae9bf7cf60bdfbc278969c228d90029",
  "source": "pragma solidity ^0.4.17;\n\nimport './BodhiToken.sol';\n\ncontract CrowdsaleBodhiToken is BodhiToken {\n    uint256 public constant nativeDecimals = 18;\n\n    /// @notice 60 million BOT tokens for sale\n    uint256 public constant saleAmount = 60 * (10**6) * (10**decimals);\n\n    // Crowdsale parameters\n    uint256 public fundingStartBlock;\n    uint256 public fundingEndBlock;\n    uint256 public initialExchangeRate;\n\n    // Events\n    event TokenPurchase(address indexed purchaser, address indexed beneficiary, uint256 value, uint256 amount);\n\n    /// @notice Creates new CrowdsaleBodhiToken contract\n    /// @param _fundingStartBlock The starting block of crowdsale\n    /// @param _fundingEndBlock The ending block of crowdsale\n    /// @param _initialExchangeRate The exchange rate of Ether to BOT\n    /// @param _presaleAmount The amount of BOT that will be available for presale\n    function CrowdsaleBodhiToken(\n        uint256 _fundingStartBlock,\n        uint256 _fundingEndBlock,\n        uint256 _initialExchangeRate,\n        uint256 _presaleAmount) \n        public \n    {\n        require(_fundingStartBlock >= block.number);\n        require(_fundingEndBlock >= _fundingStartBlock);\n        require(_initialExchangeRate > 0);\n\n        // Converted to lowest denomination of BOT\n        uint256 presaleAmountTokens = _presaleAmount * (10**decimals);\n        require(presaleAmountTokens <= saleAmount);\n\n        assert(nativeDecimals >= decimals);\n\n        fundingStartBlock = _fundingStartBlock;\n        fundingEndBlock = _fundingEndBlock;\n        initialExchangeRate = _initialExchangeRate;\n\n        // Mint the presale tokens, distribute to a receiver\n        // Increase the totalSupply accordingly\n        mintByOwner(owner, presaleAmountTokens);\n    }\n\n    /// @notice Fallback function to purchase tokens\n    function() external payable {\n        buyTokens(msg.sender);\n    }\n\n    /// @notice Allows buying tokens from different address than msg.sender\n    /// @param _beneficiary Address that will contain the purchased tokens\n    function buyTokens(address _beneficiary) public payable {\n        require(_beneficiary != address(0));\n        require(block.number >= fundingStartBlock);\n        require(block.number <= fundingEndBlock);\n        require(msg.value > 0);\n\n        uint256 tokenAmount = getTokenExchangeAmount(msg.value, initialExchangeRate, nativeDecimals, decimals);\n        uint256 checkedSupply = totalSupply.add(tokenAmount);\n\n        // Ensure new token increment does not exceed the sale amount\n        assert(checkedSupply <= saleAmount);\n\n        mintByPurchaser(_beneficiary, tokenAmount);\n        TokenPurchase(msg.sender, _beneficiary, msg.value, tokenAmount);\n\n        owner.transfer(msg.value);\n    }\n\n    /// @notice Shows the amount of BOT the user will receive for amount of exchanged wei\n    /// @param _weiAmount Exchanged wei amount to convert\n    /// @param _exchangeRate Number of BOT per exchange token\n    /// @param _nativeDecimals Number of decimals of the token being exchange for BOT\n    /// @param _decimals Number of decimals of BOT token\n    /// @return The amount of BOT that will be received\n    function getTokenExchangeAmount(\n        uint256 _weiAmount, \n        uint256 _exchangeRate,\n        uint256 _nativeDecimals, \n        uint256 _decimals) \n        public\n        pure \n        returns(uint256) \n    {\n        require(_weiAmount > 0);\n\n        uint256 differenceFactor = (10**_nativeDecimals) / (10**_decimals);\n        return _weiAmount.mul(_exchangeRate).div(differenceFactor);\n    }\n\n    /// @dev Function to allow crowdsale participants to mint tokens when purchasing\n    /// @param _to Address to mint the tokens to\n    /// @param _amount Amount of tokens that will be minted\n    /// @return Boolean to signify successful minting\n    function mintByPurchaser(address _to, uint256 _amount) private returns (bool) {\n        return mint(_to, _amount);\n    }\n}\n",
  "sourcePath": "/Users/dericw/coding/bodhi/contracts/contracts/tokens/CrowdsaleBodhiToken.sol",
  "schemaVersion": "1.0.0",
  "updatedAt": "2017-11-01T15:42:16.921Z"
}